:020000000F28C7
:10000800FE00030EF9000408FA000A08FB00831238
:100018007F08FC00722D1028FD0183134D308400E9
:100028005D309C26A0308400C0309C2683011C28AB
:100038006626FD01D225831212110330920412089C
:10004800873948389200F93083169200831291015B
:10005800DC010030D8000030D7000030D600003076
:10006800D5001215831616158B150B108B178312D6
:10007800DB015B08031944284B24FD018312DB01D3
:1000880005184B2887141E30C8004808D9008C1C56
:100098003D288C100130C8004808DC0732305C0667
:1000A800031DA028DC010130D507003003180130FA
:1000B800D607003003180130D70700300318013085
:1000C800D807590803196D280130D90259080319AE
:1000D80087105008B1004F08B0004E08AF004D0817
:1000E800AE005808B5005708B4005608B3005508C4
:1000F800B200AB2383123108CC003008CB002F08A4
:10010800CA002E08C9004C084B044A044904031DC0
:100118008E28AF2683124C085406031D9D284B08D1
:100128005306031D9D284A085206031D9D284908A9
:100138005106031DA028B226831255183D285C08D5
:100148000319071605305C06031D3D2807123D28D4
:100158008312BA003A08840083130008B1003108FA
:10016800BB000130B1003108BA0720303B06031943
:10017800AE2809303B060319AE280030B90000301C
:10018800B8000030B7000030B600B5012D303B068E
:10019800031DD3280130B1003108B507D7282B300B
:1001A8003B06031DE1283A0884000008B100310825
:1001B800BB000130B1003108BA073B088D26031C8B
:1001C8001C2983123B08D03EB100B201B301B4012F
:1001D8003908A3003808A2003708A1003608A00093
:1001E8000030A7000030A6000030A5000A30A400A7
:1001F800932483122008B10721080318210F052929
:100208000629B20722080318220F0B290C29B30765
:1002180023080318230AB4073408B9003308B800C0
:100228003208B7003108B6003A0884008313D92889
:1002380083123508031930293609AD003709AE0095
:100248003809AF003909B000AD0A0319AE0A03191D
:10025800AF0A0319B00A08003908B0003808AF001F
:100268003708AE003608AD000800F601F201F301C8
:10027800831205193C29F7011330770203184D2919
:1002880000000130F0007008F70713307702031CF4
:100298004429000000000000000000000000F501F3
:1002A8000830750203188C29F70108307702031803
:1002B800662900000130F0007008F707083077025F
:1002C800031C5D29000000007608F0007007F100AB
:1002D8007108F6008312050CF000700C0139F1006A
:1002E8007108F607F701093077020318842900001E
:1002F8000130F0007008F70709307702031C7B29EA
:100308000130F0007008F50708307502031C582901
:100318007608F0007008F400F601F501083075025F
:100328000318B0297608F0007007F1007108F6008C
:1003380074080139F0007008F6077408F00003101B
:10034800700CF1007108F4000130F0007008F50736
:1003580008307502031C96298312051DB0297608FA
:1003680008008312BB1FC529B809B909BA09BB0916
:10037800B80A0319B90A0319BA0A0319BB0A2D30B6
:100388005B238312BE01BE0AC00107304002031876
:10039800152A0030B1000030B0000030AF000A303C
:1003A800AE004008BC0001300310BC0DFF3E031D29
:1003B800D82903103C0D013E84000024A00000242D
:1003C800A1000024A2000024A3003B08A7003A08CB
:1003D800A6003908A5003808A400A722831223081C
:1003E800B5002208B4002108B3002008B200AB23EE
:1003F80083122E08303EBD003D08BF003E03031D9A
:10040800092A30303F0603190C2ABE013F085B2336
:1004180001308312BC003C08C00707304002031CAF
:10042800CD290030A3000030A2000030A1000A301E
:10043800A0003B08A7003A08A6003908A50038081C
:10044800A4002F2283122008303EBC003C08BF00C5
:100458003F085B2308008312AA01A71F402AA409AA
:10046800A509A609A709A40A0319A50A0319A60A32
:100478000319A70AAA01AA0AA31F4D2AA009A109BC
:10048800A209A309A00A0319A10A0319A20A0319B8
:10049800A30A23082204210420040319902AA9018D
:1004A800A90AA31B652A0130A8000310A00DA10DFD
:1004B800A20DA30DA80B592A0130A8002808A907E6
:1004C800552A23082702031D732A22082602031D22
:1004D800732A21082502031D732A20082402031CFD
:1004E800832A2008A4022108031C210FA502220840
:1004F800031C220FA6022308031C230FA7020130A6
:100508000310A30CA20CA10CA00CFF3E031D842A0F
:100518000130A902031D652A2A0803199E2AA40985
:10052800A509A609A709A40A0319A50A0319A60A71
:100538000319A70A2708A3002608A2002508A10076
:100548002408A000080000308312AC000030AB0083
:100558000030AA000030A900230822042104200446
:100568000319FD2AAD01AD0AA31BC82A0130A80052
:100578000310A00DA10DA20DA30DA80BBC2A0130DC
:10058800A8002808AD07B82A0130A8000310A90D53
:10059800AA0DAB0DAC0DA80BCA2A23082702031D10
:1005A800DF2A22082602031DDF2A21082502031D4F
:1005B800DF2A20082402031CF02A2008A4022108AC
:1005C800031C210FA5022208031C220FA6022308E0
:1005D800031C230FA702291401300310A30CA20C3B
:1005E800A10CA00CFF3E031DF12A0130AD02031D32
:1005F800C82A2C08A3002B08A2002A08A100290851
:10060800A00008008312A9000030AD000030AC0043
:100618000030AB000030AA00AE0104302E020318EF
:10062800522B2A08A5002B08A6002C08A7002D0885
:10063800A80008300310A50DA60DA70DA80DFF3EB4
:10064800031D1E2B2808AD002708AC002608AB00A8
:100658002508AA002E082907A4268312A500A601AA
:10066800A701A8012508AA07260803110318013EB7
:10067800031DAB07270803110318013E031DAC0730
:10068800280803110318013E031DAD070130A5001A
:100698002508AE0704302E02031C152B2D08A400D4
:1006A8002C08A3002B08A2002A08A1000800831226
:1006B800A2008510A4011330240203186D2B00003A
:1006C80001308312A0002008A40713302402031C61
:1006D800632B00000000000000008312A301083013
:1006E800230203189E2B22080139A000A00D05083B
:1006F8002006FD39200685002208A0000310200CE2
:10070800A1002108A200A401103024020318962B8E
:10071800000001308312A0002008A4071030240232
:10072800031C8C2B0130A0002008A30708302302EB
:10073800031C772B8514A401123024020318080027
:10074800000001308312A0002008A407A02B831208
:10075800310830042F042E040319EF2BB701B70A10
:10076800B11BC42B0130B6000310AE0DAF0DB00D98
:10077800B10DB60BB82B0130B6003608B707B42B4D
:1007880031083502031DD22B30083402031DD22B49
:100798002F083302031DD22B2E083202031CE22B32
:1007A8002E08B2022F08031C2F0FB3023008031CB7
:1007B800300FB4023108031C310FB50201300310A9
:1007C800B10CB00CAF0CAE0CFF3E031DE32B013097
:1007D800B702031DC42B3508B1003408B000330834
:0807E800AF003208AE0008006A
:1008000004308A000408840A820700348034963455
:1008100098340034403442340F340034A0348634E9
:10082000013400341034273400340034E834033405
:100830000034003464340034003400340A340034AA
:10084000003400347034693400347534703420342A
:10085000743469346D3465343A342034003463348C
:100860006C346F34733465340034733465347434E9
:10087000203400346F34703465346E3400342034E6
:100880003D3420340034743469346D3400346734BA
:1008900065347434003442302926003A0319512C4F
:1008A00040253E302926003A0319652C2030512678
:1008B00083125808BB005708BA005608B9005508FB
:1008C000B800B52173305B23AC2635302926003AB9
:1008D00003196B2CAF262A302926003A0319712CF4
:1008E000B22630302926003A03198D2CA630AC20D0
:1008F00083123008C7002F08C6002E08C5002D0837
:10090000C4004708B7004608B6004508B5004408CB
:10091000B40083162408D32440251E308312C3005C
:100920004308D900080000308312AC000030AB004F
:100930000030AA000030A900201CB22C2408A9070E
:10094000250803110318013E031DAA0726080311F9
:100950000318013E031DAB07270803110318013ECE
:10096000031DAC070130A8000310A40DA50DA60DB2
:10097000A70DA80BB42C01300310A30CA20CA10CE2
:10098000A00CFF3E031DBC2C2308220421042004DC
:10099000031D9C2C2C08A3002B08A2002A08A100F0
:1009A0002908A00008008312B900BA013A081D3EC8
:1009B00084000024003A031908003A081D3E840010
:1009C00000243906031D062D3A08B8000130031033
:1009D000B80DFF3E031DE72C0310380D4D3E84007B
:1009E000340883138000840A35088000840A36089E
:1009F0008000840A370880003708B0003608AF004E
:100A00003508AE003408AD003908FE2501308312E8
:100A1000B8003808BA07D62C8312B400B5013508DF
:100A20001D3E84000024003A0319372D35081D3E71
:100A3000840000243406031D322D3508B300013034
:100A40000310B30DFF3E031D202D0310330D0623AD
:100A500083122408B2002308B1002208B000210844
:100A6000AF0008000130B3003308B5070F2D003088
:100A7000B2000030B1000030B0000030AF0008001C
:100A8000D2258312C20142081D3E84000024003A90
:100A90000319080042081D3E840000245B233A30FD
:100AA000512683124208C10001300310C10DFF3EE0
:100AB000031D552D0310410D4D3E84008313000886
:100AC000B800840A0008B900840A0008BA00840A41
:100AD0000008BB00B521AC2601308312C1004108DB
:100AE000C207432D3921F80078088312DA000A3052
:100AF0005A0603197F2D0D305A06031D872D7D08D8
:100B0000A03E840083138001DB01DB0A972D5A0885
:100B1000F8007D08A03E84007808831380001F3011
:100B20007D020318972D0130F8007808FD070B109F
:100B30007C08FF007B088A007A088400790E830015
:100B4000FE0E7E0E09008312AB00AC0104302C02B5
:100B5000031808002208A6002608A0002C03FF3A6C
:100B60002B07033E7A2683122208A6002308A7003B
:100B70002408A8002508A9000830AA00290DA90CFE
:100B8000A80CA70CA60CAA0BBE2D2908A5002808A6
:100B9000A4002708A3002608A2000130A60026080A
:100BA000AC07A62D8312B70137081D3E8400002430
:100BB000003A0319080037081D3E840000240C2564
:100BC00083123708B60001300310B60DFF3E031D37
:100BD000E42D0310360D4D3E84002F088313800052
:100BE000840A30088000840A31088000840A3208B0
:100BF00080000130B6003608B707D42D8312B2004A
:100C0000B30133081D3E84000024003A0319080094
:100C100033081D3E840000243206031D232E3008B5
:100C2000A5002F08A4002E08A3002D08A200330859
:100C3000B10001300310B10DFF3E031D1A2E031049
:100C4000310DA325080001308312B1003108B3072C
:100C5000012E8312A100A201220821078400002492
:100C6000003A031D352E013008002208A03E840002
:100C700083130008031D3E2E0030080022082107C0
:100C800084000024A0002208A03E84000008200662
:100C900003194C2E003008000130A0002008A207E4
:100CA0002C2E8312A700A601260827078400002403
:100CB000003A0319080026082707840000245B2354
:100CC00001308312A5002508A607542E0730831291
:100CD000990083169101FD30850081130530950040
:100CE00083128514E9308316870083120712871058
:100CF000071108008312A100210883169B008312AC
:100D0000200883169A001C1555309D00AA309D00BE
:100D10009C149C18892E1C1108008312A100A001AC
:100D20003A30210203189A2E30302102031C9A2EE9
:100D3000A001A00A200C080064008001840A0406B7
:100D40000319003404069D2E8312A0002008831688
:100D50009B001C141A0808000A305B230800831249
:0A0D600007150800831207110800B0
:02400E00C2F0FE
:00000001FF
